:020000040000fa
:080000000002040000000000f2
:020000040000fa
:100400008fcc2200007f2400000188000000000043
:100410000c000700205a2d000100200011000700e9
:10042000000020000000e000020032000000020096
:100430000000000046b70200000000000040da00a3
:100440000000fe004440a900006e20000000e00013
:100450000300320000002000a00188004440a800f2
:100460000000060091018800800078000000eb0089
:1004700015003700e280400032a0b4009101ba00bc
:10048000e280400032a0b4009102ba00e280400055
:1004900032a0b4000002eb00472bde00f507b200eb
:1004a000602ce10004003a000059eb008301e900f0
:1004b000fdff3e00040037006128e100010032002a
:1004c0000082eb00040007001101ba000200e00006
:1004d000e8ff3a00000006003159ba008301e90044
:1004e0000c0032002159ba008301e90008003200f3
:1004f0000400e00003003a00e280400032a0b400b3
:10050000f5ff370011d9ba008301e900faff3a007c
:100510008100e800e180400032a0b4000000060045
:10052000fa0e0400010000009eb704000000000065
:1005300072a204000000000064a10400000000009a
:1005400084a104000000000080a20400000000005c
:100550008ca20400000000009aa10400000000002a
:1005600066a2040000000000c2b204000000000007
:100570001eaf0400000000002eb1040000000000c7
:1005800086ad0400000000000cac04000000000078
:1005900068af04000000000048b004000000000044
:1005a000d6ac04000000000010b2040000000000ff
:1005b0007ab304000000000038f3040000000000db
:1005c000e6f3040000000000d2f404000000000084
:1005d00038f504000000000052f50400000000009f
:1005e0006af50400000000002af604000000000084
:1005f000e41c0400010000008cba040000000000ac
:10060000b0bf0400000000003abc0400000000007d
:100610005c160400010000001e7a040000000000c7
:100620006c060400000000003200f8009101880010
:10063000023b88000008bb000500fc0051052000bb
:10064000313b8800a10a2000313b880061e7a80007
:1006500000000000000000003200f9000000060069
:100660000400a100010037000400a0003200f800df
:100670009101880011002400013b8800f10f200047
:100680003208bb000400a700b20078000198bb004c
:100690008301e900faff3a00680151000400a70055
:1006a00068015100680050001208bb00e2ff3700eb
:1006b000f30f20003200f80091018800310024007f
:1006c000013b88000208bb000388bb00daff37004b
:1006d0003200f800003b8800d7ff37008001eb00b4
:1006e00002003700817178008301e800828f510099
:1006f000fcff3a0000000600889fbe000004be0018
:10070000f06581000000e0000100320000000100ff
:100710000800e00001003a00e86581000800be0022
:1007200095010700000444001804e00004003a00aa
:1007300000cc2200e06589000004eb0007003700d0
:100740000800be009e010700000044001004e00005
:10075000010032000058eb00e065890008007800d5
:100760004f04be0000000600800178000001780000
:1007700031407800005978000004e000fcff3a00a6
:1007800003007800000006008000780001003700b8
:100790000000e8001004e000fdff3a0001005000f6
:1007a0000000060080017800000178000100370099
:1007b0000201e8001204e000fdff3a0002003700e9
:1007c0000201e8008100e80011407800004978004b
:1007d0000004e000faff3a00030078000000060081
:1007e000ec874700889fbe008a9fbe008c9fbe009a
:1007f0008e1f7800f0b79f0081bf9f0082047800b1
:1008000000047800010037000804e8001847780069
:100810000e00fb007c0107000000e000faff3a0038
:10082000d0c2b300804f57000500320000c0e9007d
:10083000804f570002003200004778000100370067
:100840000804e8000900e00045003500e18f54008d
:100850004300320040022000808f540040003c00e2
:100860000900e0000e003400f08f54001a003a0036
:1008700000c3b300984f100016003a009840900053
:1008800080c7b30080cf50000300320080c5b300a2
:1008900080cf50000f003a000884e8000e003700b7
:1008a000a900200000c3b300984f10000a003a00ce
:1008b0009840900080c7b30080cf50000400320001
:1008c0008900200080c5b30080cf500002003a00ac
:1008d0000884e800090120000805780000c3b3007f
:1008e000010037000a05e8009a4f1000fdff3200b2
:1008f0008a0578006066b8000e003700f099220083
:1009000000425200c4ef9f006149b9000c00be00d4
:10091000620a07004fea97000401fb00cf91de0056
:100920008b05e800ccb79f00ddb79f0000064100b3
:10093000818649001b00fb003b0107008000780016
:1009400009017800f09922003e01070000027800ba
:100950000000e000e9ff3a008b0f540006003a0067
:100960000fb897000000e00029003200ffb09700a8
:1009700001087800260037008a805500a0972200e1
:1009800060c07c000000fb000080500016003300b7
:100990004240a9000f003c004fe997000200fb0015
:1009a000cf80de000000560081805e00800f560080
:1009b000818f5e00070039006149b9003d0a0700d8
:1009c0004fb19700dfb19700820f5000838f58001e
:1009d0000500320020022000406489000086eb0000
:1009e0008086eb0005003700d0c2b300804f57006f
:1009f00002003a0060061600e0861e008fb99700dc
:100a00000300e000030032008b097800010037008a
:100a10006066b8000c00be004f0778004f06be00ad
:100a20004f05be004f04be00cf00b100000006001d
:100a3000881f7800806281000000e0000100320021
:100a400000000100506281000000e000010032005f
:100a500000000100b04081000000e0000100320011
:100a600000000100804081000000e0000100320031
:100a70000000010020c522001004e00026003a001a
:100a800060628100716281000004eb00d260260088
:100a900093012000010a0700f2352f00e3c623006e
:100aa00000004100818049000804e800e80f54007c
:100ab000f6ff3a0060628900716289008881220035
:100ac000d260260093012000606281007162810083
:100ad000f2090700f2352f00e3c6230000004100b1
:100ae000818049006062890071628900009cbe00bb
:100af00080892200800f5400f1ff3a00a044810059
:100b0000b144810090408900a140890011c0b30028
:100b100020c5220001487800d26026009301200001
:100b20006062810071628100dc090700f2352f00ec
:100b3000e3c6230000004100818049006062890013
:100b40007162890022812200120178007f01610018
:100b50004211dd0083812200030141001202be0028
:100b600094408900a54089000089be009040810022
:100b7000a14081004008de0000f0a1004f04780091
:100b800000000600881f7800000478008062810061
:100b90000000e000010032000000010020c522003a
:100ba0000048eb00506281000000e00001003200cc
:100bb000000001006140b800606289007162890034
:100bc0004f047800000006008001eb0008003700a9
:100bd000e342780063c278008301e80084cf5200ca
:100be000030032000080eb00040039001000050013
:100bf000828f5100f6ff3a000000eb000000060073
:100c0000040037000204e0000a0032000000e8009f
:100c10008100e80010417800914f5100f9ff320047
:100c20000081eb0010407800914f50000400390023
:100c3000020037000001eb00010037001200200025
:100c400002007800000006008001eb00020037007f
:100c500061f079008301e800828f5100fcff3a00c7
:100c600000000600040037000204e00001003a0022
:100c7000000005000000e80010417800814f51009d
:100c8000f9ff3a0000000600889fbe00810478004a
:100c9000114478000804e00009003a000c00370015
:100ca0008001780009017800d24078000104e0005a
:100cb00007003200d3cf1000fbff32000000e80035
:100cc0008800fb00e7ff07000000e000f4ff3a00a7
:100cd0004f04be0000000600881f78000204780060
:100ce000d9ff0700080040004f047800000006000c
:100cf0000000fa00881f7800000478003fb99700d0
:100d0000ea81570080007800c06620005d0007007f
:100d1000800078000000e000020035000040eb0099
:100d200000f47800010078004f0478000080fa0099
:100d300000000600800178008002eb00010037000f
:100d40008459780005035100828f52000900320057
:100d500065c278008502e8000404e000f8ff3a006c
:100d600083007800068141008058eb00828f50009c
:100d7000fdff3a0000000600000278000b0037007b
:100d800001017800924178000304e00002003a007b
:100d9000040050000000060083cf52000200320021
:100da0000201e800f7ff37000000e80090427800f9
:100db0000504e000f2ff3a000400500000000600c5
:100dc000000278000700370083cf52000a0032008b
:100dd0000201e800924178000304e000faff3a00c3
:100de0000000e800904278000504e00004003200b2
:100df00001017800f7ff37000400500000000600f2
:100e000004005000000006006900e1000400350005
:100e10006d00e100030034000002b1000100320067
:100e20000000050010000500800078001104b100ea
:100e3000030035009101b10001003c000050a0000a
:100e4000000006008001eb00040037008301e80089
:100e500090cf1000040032000000e800828f5100a3
:100e6000faff3a000000eb00000006003064810049
:100e70000000e000010032000000010080c82200f4
:100e8000000006006200fa00889fbe008a9fbe0034
:100e90000004be00020578008300780060f92f008e
:100ea0000f004000b000070088979f0099979f00af
:100eb0000000eb00a09f9f009a4578000b80fb008c
:100ec0000000ea00cf04de0050c2b30080cf55001e
:100ed0000200320009047800010037000904e9002b
:100ee0000800e0000b0034001f9097000801780014
:100ef0008a0078008f9197000300010090979f006f
:100f00000000e000930032002f989700000044009a
:100f1000a09f9f000905450050c2b30080cf550037
:100f2000040032000b04e000e3ff3a002f98970022
:100f3000890037000000eb00809f9f00f0979f0022
:100f4000e0979f00d0979f00c0979f00b0979f00a9
:100f5000c09f9f000900370000c22200008050009f
:100f60000000400041c12200e10078004f98970046
:100f700001007000c09f9f000a05e8001a44780035
:100f80008800fb0000c2220036ff070080007800c6
:100f90000000e000f0ff3a00a0c2b300804f540010
:100fa0000e003a00bf8897000180e900b08f9f00d3
:100fb00010007800b09f9f000000e00005003d0099
:100fc0000000ea00b09f9f004f9897000020a0000b
:100fd000c09f9f000a05e80010003700b19f9f00e6
:100fe00003fd2f00f4ff2700080037003f9897000b
:100ff000840f5000040032006a00b9000000410074
:1010000003004000b09f9f000a05e8001a01fb00a2
:1010100003004100e90f5000f4ff3600e0c2b300c6
:101020009a4f1000040032000080eb00909f9f0058
:101030008a0478001c0037008a04e800a0c2b300cc
:10104000994f100007003a00bf8897000180e9001f
:10105000b08f9f0010007800909f9f008a84e80066
:10106000110037000000eb00909f9f0003fd2f0050
:10107000f4ff2700080037001f989700840f5000e6
:10108000040032006a00b900000041000300400083
:10109000909f9f008904e8001901fb0003004100b4
:1010a000e90f5000f4ff3600194478008800fb0077
:1010b000c0c52200ebfe07000000e00002003a007d
:1010c00000447800010037008904e800a87f9f00f1
:1010d00080c6b300804f540004003a00994f1400ba
:1010e0000a003a006640500006003700c0c6b30050
:1010f000804f540005003a00994f140003003a0055
:1011000065404000a07f9f008904e8000905e800d1
:10111000c8fb2f000f04440060f92f000f004000af
:101120008085e80088017800194178008000780007
:101130000b007800db0007000000e00005003a002b
:10114000880078000b0078000c0007000000e00029
:1011500059ff3d000080eb004f05be004f04be006c
:101160000080fa00000006000200fa00f1bf9f00b4
:10117000010878000080fa00000006000400fa0070
:10118000889fbe008a9fbe008c1f780000047800f4
:101190000106780070089000f800900001005000ef
:1011a000880890000100500098089000010050004d
:1011b000a808900001005000b808900001005000fd
:1011c000c8089000810550000002220090bf9f00d7
:1011d00000032300a0bf9f00081090000028a30078
:1011e00018003a000b00e000160034008b04780071
:1011f00009057800e28f5400020036002a00200022
:10120000020037000900e0000b0034005800900095
:10121000c80190000a017800ee8057000300010029
:10122000500498000000e00096003200680890002a
:1012300000004500600c98008a8454004240a900d8
:10124000ebff3c00780190000200e0000b0034004e
:1012500058009000c80190008c0078000300010045
:10126000500498000000e0008600320068089000fa
:10127000f800900001004000600c9800880c90007d
:101280000900e0001500340009057800e28f5400e1
:10129000020036002a002000020037000900e000aa
:1012a0000b00340058009000c80190000a0178003b
:1012b000ec80570003000100500498000000e0009b
:1012c000700032006808900000004500600c980033
:1012d0008a8454004240a900ebff3c0018099000aa
:1012e0000200e0000b003400e8009000580090007d
:1012f000c801900003000100500498000000e000c5
:1013000060003200680890009808900001004000da
:10131000600c9800a80c90000900e0001500340053
:1013200009057800e28f5400020036002a002000f0
:10133000020037000900e0000b0034005800900064
:10134000c80190000a017800ec80570003000100fa
:10135000500498000000e0004a0032006808900045
:1013600000004500600c98008a8454004240a900a7
:10137000ebff3c00380990000200e0000d00340053
:10138000e80090001808900080804000580090000d
:10139000c801900003000100500498000000e00024
:1013a0003800320068089000b80890000100400042
:1013b000600c9800c80c90000900e0001500340093
:1013c00009057800e28f5400020036002a00200050
:1013d000020037000900e0000b00340058009000c4
:1013e000c80190000a017800ec805700030001005a
:1013f000500498000000e0002200320068089000cd
:1014000000004500600c98008a8454004240a90006
:10141000ebff3c00081090000028a3001b003200e6
:101420000b00e000190034008b04780009057800f7
:10143000e28f5400020036002a002000020037002c
:101440000900e0000b00340058009000c801900033
:101450000a017800ee805700030001005004980054
:101460000000e0000700320068089000000045001e
:10147000600c98008a8454004240a90003003400a4
:10148000eaff37000080eb00010037000000eb00ae
:101490004f0678004f05be004f04be000080fa00e2
:1014a00000000600889fbe008a1f780000047800b4
:1014b00001027800824478000305780070c6b3000a
:1014c000804f510021003c0000c0e900804f5100d6
:1014d000de003d0072405000804f51004b01320051
:1014e0000d003c006c405000804f51005e013c00fc
:1014f00000c0e900804f5100d4003d0050c2b3004d
:10150000804f5100550132007c404000804f510017
:1015100055013a00cd00370010c6b300804f51008e
:10152000ca00320004003c0069405000804f510066
:101530004d013a007200370030c6b300804f5100b1
:10154000180032000040e8000900370000c7b3006f
:10155000804f51001e01320008003c0000c0e9002d
:10156000804f5100e400320065003c0065405000af
:1015700080cf54003c013a000f00370050c7b30041
:10158000804f51005e00320063404000804f5100a8
:101590005b00320065405000804f510032013a003c
:1015a0001a0137009180e900010a78007800900064
:1015b0009171780032013700a8609000c0c6b30076
:1015c00080cf50000a003a009400780064805000f8
:1015d000000a78001000be004f89de00cf91de00c7
:1015e0000002be0002037800820378001300370077
:1015f00010c7b30080cf500003003200a0c6b30074
:1016000080cf500006003a009400780068805000b7
:10161000000a78003002be002003be000700370039
:101620001480e900000a78001000780000027800b9
:10163000cfa2de000503780086037800049cbe007c
:101640000694be00a860900080c6b30080cf500012
:101650000e00320020c6b30080cf500005003a00d3
:101660000400fb00cf80de000101780082017800d9
:101670000a00370040c7b30080cf5000030032009b
:101680006640400080cf500006003a000400780019
:10169000cf80de000101780082017800009cbe004e
:1016a0000294be003800be002801be00e00f5000ca
:1016b000e08f5800e00f5900e08f590003003d0013
:1016c00078009000d1c2b3000a00370008109000e3
:1016d0000018a3000300320078009000b1c2b300ec
:1016e000040037000008a300530032007800900087
:1016f00001c2b300017578000000e8004d0037001a
:10170000a8609000c0c6b30080cf500006003a0029
:101710009400780064805000000a78001002be0037
:101720006033b8001300370010c7b30080cf5000fb
:1017300003003200a0c6b30080cf500006003a007c
:101740009400780068805000000a78003002be00e3
:101750002003be00070037001480e900000a78006b
:10176000100078000002780005002000060020002c
:1017700007002000049cbe000694be00a8609000f4
:1017800080c6b30080cf50000e00320020c6b300e8
:1017900080cf500005003a000480fb0001002000cb
:1017a00002002000030020000a00370040c7b300f9
:1017b00080cf5000030032006640400080cf5000d0
:1017c00006003a000400780001002000020020001a
:1017d00003002000009cbe000294be000810900090
:1017e0000038a300140032003800be002801be00fb
:1017f000e00f5000e08f5800e00f5900e08f5900d3
:101800000d00320080c7b30080cf540003003200c7
:1018100080c5b30080cf540007003a0078009000e4
:1018200001c3b300017578008000e80009f5780075
:101830000080e800700498007800900000004500e7
:1018400060049800894078006d003700a86090001f
:10185000c0c4b30080cf500006003a009400780066
:1018600068805000000a78005001be004000be00b1
:10187000050037009400780064805000000a78006a
:101880001000be00f0080700009cbe000294be00dd
:10189000380090000000e00003003d007800900058
:1018a000d1c2b3000a003700081090000018a3004e
:1018b0000300320078009000b1c2b300040037008a
:1018c0000008a300050032007800900001c2b300b8
:1018d000017578000000e80070049800780090001e
:1018e00000004500600498008940780008007800f6
:1018f000f201070064003700a8609000c0c6b30082
:1019000080cf5000250032000a003c0064405000a7
:1019100080cf50002800320000c0e80080cf500087
:10192000140032006840500080cf500022003a007e
:101930000a00370040c7b30080cf50001e003200bd
:101940006640400080cf50001b00320069405000cc
:1019500080cf500018003a00060037001480e900dc
:10196000000a780010007800485c90000848780071
:10197000450037001480e900000a78001002780062
:1019800068089000cf80de000101780082017800b5
:10199000009abe000292be003b0037001480e900ae
:1019a000000a78001001780068089000cf80de00ff
:1019b0000089be00340037001480e900000a780076
:1019c00010007800680c9000080878002e0037009e
:1019d0001180e9008008780010007800cf80de00d8
:1019e0000101780082017800009cbe000294be00d4
:1019f00078009000000045006004980081c7b300a3
:101a000008007800240007001f0037001480e90058
:101a1000000a7800100078006004980058099000cf
:101a20000200e00002003d0057fb070009003700fc
:101a30008000eb0003fd0700800078000000e0005c
:101a40000300320068009000008050000100370061
:101a500058089000100c98000b0037007800900098
:101a6000027578000600370078009000800045007d
:101a70000904e00001003a0059c2b3008948780027
:101a80000000e800700498000000eb004f057800ab
:101a90004f04be00000006002f03b000889fbe0068
:101aa0008a9fbe008c9fbe008e1f780000077800c2
:101ab00070b82200c0b79f0080c5b30080cf50002f
:101ac0000800320062b72200c2b79f007740400092
:101ad00080cf500003003a0083002000b3b79f007e
:101ae0000a00370080c7b30080cf500005003200e5
:101af000a4002000b4b79f0080c5b30080cf500081
:101b000002003a0005012000b5b79f003e04be0068
:101b10002e05be0040c6b30080cf50000300320047
:101b20006540400080cf50000b003a00e00f5400a9
:101b3000e08f5c00e00f5d00e08f5d0006003d007f
:101b40006000b8006011b800080450008984580093
:101b50000a0559008b855900bfb39700e88f5300e1
:101b600003003200f08f530045003a0002003700b6
:101b7000360020000100370046002000e00f54002e
:101b8000e08f5c00e00f5d00e08f5d0005003a0033
:101b90005e08900081012000a1b79f000000e000d6
:101ba000080032003fb197000200e9000800600021
:101bb000cfb197006340780090df9f007401200050
:101bc000a4b79f00860278008502e9000500330073
:101bd0008b05d1000a85d3008984d3000884d30003
:101be000f9ff3700089fbe000a97be00afb3970009
:101bf0000700e90021fc2f008f8040000082400098
:101c00003fb197008202e90012003700afb397009e
:101c10008703e900a7b79f0000806200cfb097005c
:101c2000615278003e00be002e01be00860378009f
:101c30008703e900050033008381d1000281d300ce
:101c40008180d3000080d300f9ff3700009fbe00e1
:101c50000297be003e00be002e01be00e00f500005
:101c6000e08f5800e00f5900e08f5900d600340093
:101c7000afb397000700e000e4ff3c00d20037005c
:101c8000ae60900080c6b30080cf50000b003200e1
:101c900006003c000104e0000800320066405000ed
:101ca00080cf500073003a0004003700c0c6b30074
:101cb00080cf50006f003a003100370008017800f3
:101cc0000800e00005003a005e0890008101200055
:101cd000a1b79f000000e00009003200bfb19700eb
:101ce000110009000381d8008000fd004fb2970069
:101cf0006440780090df9f0075012000a5b79f0029
:101d0000bfb39700110009000781d8008001780057
:101d1000afb097000100e90022fc2f000f01410045
:101d2000000241000c003700bfb29700110009000b
:101d30008501d80000017800afb397008703e90060
:101d4000a7b79f000590b90000805100cfb0970061
:101d500061527800820178000300e0000300340043
:101d60002fb197000200e000efff3c000300780075
:101d7000cf80de0001017800820178003a00370050
:101d80000806be00e00f5400e08f5c0005003a003a
:101d90005e08900083012000a3b79f000000e000d0
:101da000090032003fb297006121b9000c00be006b
:101db000c4070700cfb297006540780090df9f000e
:101dc00077012000a7b79f003fb297006121b900bb
:101dd0000c00be00370507000006be00afb297003a
:101de0000500e90027fc2f008f8343008083430018
:101df00097b79f00110037003fb197006114b900f9
:101e00000801be000c00be00b10707000005be00bf
:101e1000afb197008301e900a3b79f000801be009e
:101e20001e050700000056001fb29700cfb29700b2
:101e30006552780094b79f000a06be00e00f560076
:101e4000e08f5e0003003400afb397000700e000ae
:101e5000e9ff3c004feade00cfa2de000c00be002e
:101e60000401780084017800009fbe000297be0044
:101e700055003700e00f5400e08f5c00e00f5d007c
:101e8000e08f5d0005003a005e08900081012000af
:101e9000a1b79f000000e0000d0032003fb19700a5
:101ea00002027800cfa2de000503780086037800e6
:101eb0000800be000a01be00ab0607004fb2970043
:101ec0006440780090df9f0075012000a5b79f0057
:101ed0003fb1970002027800cfa2de000503780030
:101ee000860378000800be000a01be0097060700be
:101ef000009fbe000297be00afb197000300e9004b
:101f000024fc2f000f024200000642002000370090
:101f1000bfb2970005047800cfc4de000905780041
:101f20008a0578000802be000a03be005fa8970079
:101f3000efa897007fa997008fb197008e06070042
:101f4000d0b79f00e1b79f00f2b79f0083bf9f000b
:101f5000afb397008703e900a7b79f000802be0050
:101f60000a03be000a0707005faa9700000052009c
:101f7000cfb29700655678005fb09700efb097003a
:101f80007fb197008fb99700009fbe000297be00f7
:101f90003e00be002e01be00d0af9f00e1af9f000b
:101fa000f2af9f0083b79f00e00f5000e08f580012
:101fb000e00f5900e08f590003003400afb09700e4
:101fc0000100e000d2ff3c003fb19700e80f510054
:101fd00013003a000e1090000038a30010003200e9
:101fe000afb19700f78f510006003e0024fc2f0090
:101ff0000f0242008300420000c3b300914f100063
:1020000007003200afb297008502e900a5b79f0034
:1020100000c3b30027fc2f008f83430080f37a00b6
:10202000afb1970078811100120f98006e009000f8
:1020300024fc2f000f0242008300420002fb070035
:102040001e0990005e089000800f510006003d00c0
:1020500002005000000f98000e1090000040a100f8
:10206000001798000f0037000000e0000d003d0051
:102070000e10900074006000f00f500009003a004c
:102080007e089000fe009000010050008e08900035
:1020900001005000020050004240a900010034003d
:1020a000000f98004f0778004f06be004f05be0096
:1020b0004f04be002f03b100000006008f04b000e3
:1020c000889fbe008a9fbe008c9fbe008e1f780036
:1020d000f0b79f0081f79f005001be004000be0096
:1020e000f0979f00819f9f00929f9f00a39f9f005a
:1020f00010c6b3000ff19700804f51001600320058
:1021000010c4b300804f510013003200ffb197009c
:10211000530890000000e00003003d006000200034
:10212000d00998000c0037000000e0000a003a00d7
:1021300070c6b3000ff29700804f520003003200c8
:1021400070c4b300804f520003003a00100020001a
:10215000ffb29700d00a9800ffb09700c0fa2f0096
:102160000f004000fe01070080017800e20f5000e0
:1021700015003a0030002000ffb09700900898004a
:1021800010c6b3000ff19700804f51000a003200d3
:1021900064404000804f5100070032000040e800da
:1021a000804f51000400320021af22000040e800bf
:1021b000804f510001003a0061af2200ffb197004b
:1021c00063009000160037000000e00018003400a3
:1021d000300020007fb29700100a980010c6b300ac
:1021e0008ff2970080cf52000a0032006440400016
:1021f00080cf5200070032000040e80080cf52003c
:1022000004003200a1af22000040e80080cf52005d
:1022100001003a00e1af22007fb197006200900018
:10222000315878003158780011487800c6013700dd
:1022300014c6b3008ff2970084cf5200030032001f
:1022400010c4b30080cf520013003a007fb0970053
:10225000600190008200780000c3b30080587800cd
:10226000ffb29700e102980080c7b3008ff2970099
:1022700084cf52000100320080c5b300804878004e
:102280000280e800ffb09700e00098007100900025
:102290000080e800f00098000300e00005003a002c
:1022a000e3979f0064fb2f000f01420003077800b3
:1022b000a001370025b02200e5b79f0010c6b3008b
:1022c0008ff0970080cf50000500320010c4b3009b
:1022d00080cf5000a7003a0032b12200e2b79f0041
:1022e000ffb19700530890001e0220000000e0009c
:1022f000010035000007e8000e02e800d4b79f0097
:102300006022b8006033b8007f9097008f989700e4
:102310001f999700af9997007c060700ffb09700c0
:102320003102be002103be000000e00004003d00b9
:102330000400be000601be0003f0a2000200370048
:102340000400be000601be00f0979f00819f9f0021
:10235000929f9f00a39f9f006f919700640151007f
:10236000e2979f00c3fa2f008f8141006a804100ed
:102370000048eb006b824100c4b79f00310037007a
:10238000c201200003002000e5fa2f000f80420068
:102390009f0107007f9497008f9c97001f9d9700d7
:1023a000af9d97000800be000a01be005c06070052
:1023b0000006be005fb1970067015100d2b79f00d1
:1023c0004240a9000a003400810607000002be0056
:1023d0000203be000800be000a01be007f0607001f
:1023e000f0979f00819f9f00929f9f00a39f9f0057
:1023f000cfb19700678041007100200005003700d1
:102400006f6066004c6add004466de000c067200f8
:10241000c4eede00e00f5600e08f5e0005003400e1
:102420008100e900e18f4000f5ff3a00010037002c
:102430000060eb008100e900fdff3b006700400009
:10244000c0b79f00dfb297000500e000090034002c
:102450006022b8006033b8007f9097008f98970093
:102460001f999700af9997005e0607000000e000f3
:10247000c3ff3c0060fb2f008f0040004fb197006e
:10248000010051000000e9008e0f500001003d00e6
:10249000000778000e00e00003003d0073fb2f00f2
:1024a0000f8141002c003700800f570005003d00d0
:1024b0000e80400010409000f3c0b300e74f500082
:1024c00001003c008041eb00c4fa2f000f024200e3
:1024d0000e0042006a0040008e00780001003700c4
:1024e0000000e9008100e90010417800834f5100ad
:1024f000fbff32000107e800efcf510001003a0076
:102500000248e8000100e0000300350075fb2f00e1
:102510000f814200060037000e07e8006f90970019
:1025200064004000e0979f0061fb2f000f81400096
:102530008e0041008e017800030037001100fb007f
:102540006fb29700e44878008301e9008100e90058
:102550000300e000f9ff3d00ffb29700550890002e
:102560000000e000f3003d000e00e900d00a9800f2
:10257000f00037007f9497008f9c97001f9d970075
:10258000af9d97006022b8006033b8000800be001d
:102590000a01be00dd0507000000e00005003d0067
:1025a0000bf0a200f8979f00899f9f009a9f9f00c1
:1025b000ab9f9f006f909700725927000280b9006f
:1025c000026a280013002000c1050700e400500043
:1025d000e1979f0015003b00e3801000c0ff2f0033
:1025e000008460000800ea00e0979f007f90970059
:1025f0008f9897001f999700af999700499c2200e8
:10260000070037000808a300030032003902be00ab
:102610002903be00f80507000884d100e8844400bf
:102620000800e000f7ff3c001b0037000100e0005d
:102630001d003400c0ff2f0000806000e0979f0065
:10264000000478006000b8000200200003ff2300af
:10265000499c2200070037000808a300030032004d
:102660003902be002903be00e30507000884d1003b
:10267000e88444000800e000f7ff3c000002be00d0
:102680000203be007f9097008f9897001f999700d4
:10269000af9997004d060700f0979f00819f9f001c
:1026a000929f9f00a39f9f00ffb097005109900049
:1026b00060c6b3008ff1970080cf51000400320054
:1026c0006100200060c4b30080cf510002003a00d6
:1026d0006f929700ea00420001074100f30f570094
:1026e000010034003e01200000c3b300e0779f00ea
:1026f00075fb2f008f824200b5b79f003300370073
:102700000800be000a01be00850507000006be00e5
:10271000680757004240a9000e003400ac050700ce
:102720000002be000203be000800be000a01be0097
:10273000aa0507006022b80046782d00771924000a
:10274000ad050700f0979f00819f9f00929f9f001b
:10275000a39f9f003fb097006804400089002000bd
:102760000d003700a4002000050020000c01be0071
:10277000e0fd2f000f004000200107007fa8970018
:102780008fb097001fb19700afb1970004c3b3009b
:10279000046441000006be00e00f5600e08f5e00ba
:1027a000060034008904e900e18f4400edff3a009f
:1027b0000200370000c3b300006478008904e90018
:1027c000fcff3b0068044400b8b79f000e00e00027
:1027d0000b0034007f9497008f9c97001f9d9700fb
:1027e000af9d97006022b8006033b8000800be00bb
:1027f0000a01be007b0507000000e000c0ff3c00ae
:10280000c5fa2f008f8242006a804200bfb0970055
:10281000008050008001e9006f919700e7004100bf
:102820006b81420000c3b300010037000201e800e1
:10283000924f1000fdff320074fb2f000f0042008a
:1028400080804000828050000080410002025000e1
:10285000e1979f00ffb29700d509900060c6b300d2
:102860008ff2970080cf52000300320060c4b300a3
:1028700080cf520002003a008100e8000a003700d1
:1028800050c6b3008ff0970080cf50000500320093
:102890008000eb0050c4b3008ff2970080cf52004d
:1028a00001003a0011002000018741008e0f520004
:1028b00001003d00040778000e00e0001d00350017
:1028c000840f570005003d00e2407f0095c3b30030
:1028d00040c3b30080cf500001003c0005c3b300eb
:1028e0000e0041008000e9008e01780001003700f1
:1028f0008100e9008301e90011427800854f520010
:10290000fbff32000307e80090c3b30080cf520002
:1029100001003a008448e8000300e00005003d00a3
:102920000201e9000e07e8006f9097000000e80040
:10293000e0979f006f9297008e0178008ff09700cc
:102940007fb09700ca0007004f0778004f06be000f
:102950004f05be004f04be008f04b100000006000a
:10296000889fbe00800478006684400000ff270036
:10297000180060004401de00f07f2000800f51004d
:102980000e003a00800ceb00180478006f00640021
:102990001c003a00210090000000e00019003a00fd
:1029a000110090000000e00016003a001000200026
:1029b0001100e00014003200120037000200e000b5
:1029c00005003c0001007800dd01070000017800ef
:1029d0000000e00008003c00f00028001800600043
:1029e00001fe2300010c700020c02f00800c41006c
:1029f0000080eb0004003700800ceb000000eb00cf
:102a000001003700200020004f04be000000060037
:102a1000889fbe008a1f78008c9fbe00000478004b
:102a20000206be00e6044000190178000200d00052
:102a30004505de008a007800f07f2000800f5500f9
:102a40000c003a006f00610067003a002800900017
:102a50000000e00064003a00180090000000e00070
:102a600061003a00100020001800e0005f00320012
:102a70005d0037000a00e00007003a000800780017
:102a8000af010700800078000000e0000200340081
:102a90000a007800550037006108b9000c014000b9
:102aa0008d814800e07f2000800f5100e08f5900a9
:102ab0000d0034001900e00004003d006000b80083
:102ac0000200200003ff2f00030037006000b80061
:102ad0000200200003ff2700009cbe000294be00fd
:102ae0001000200041003700e00f5100e08f590036
:102af00005003400f000280019006000c410dd005b
:102b0000810c7000360037001900780001002800a1
:102b1000010360006f0060000040a000800c78009e
:102b200061015100e0815900c0fc2f00f1ff2f002e
:102b3000800f5100818f590006003d00860c7800ff
:102b40000000eb002004980010049800000c7800ae
:102b500026003700020078000881e800e400440005
:102b600005003700120c78001109780099087800e8
:102b7000800ceb0070004000f00f4000f9ff3400c3
:102b80008002ea00150032008881e800708212009d
:102b9000980078008508de00130078000400dd004e
:102ba000008c700064014400930078008508de000a
:102bb000120078000400dd00808970009200780027
:102bc0008508de00190078000400dd00008970002f
:102bd000190078000500de00800c7800990c730065
:102be0000080eb0001003700200020004f06be00ef
:102bf0004f0578004f04be00000006000400fa00f4
:102c0000889fbe008a9fbe008c1f78000006780057
:102c100092bf9f00a3bf9f000404be000401be003a
:102c20001fb89700afb89700290407000005be0041
:102c30000001be000800be00980107001fb9970000
:102c4000afb997000000510081805900200698001c
:102c5000310698000a8ebe000c0078004f067800fe
:102c60004f05be004f04be000080fa0000000600c1
:102c70000e00fa00889fbe008a9fbe008c9fbe0097
:102c8000000478000145780002067800830478008b
:102c9000840678000300e00002003c0019002000d8
:102ca0004ccc220060c6b300804f55000e003200ad
:102cb00060c4b300804f55000b00320070c6b300f3
:102cc000804f55000300320070c4b300804f5500a0
:102cd0009c003a00e48f46008000350058089000c0
:102ce000808f56007d003d008d05e80060c6b30072
:102cf000804f55001000320060c4b300804f550073
:102d00000d003200081090000038a30004003a00c3
:102d100058089000808f540001003d00590c980025
:102d2000580890000b005000500c980002003b0027
:102d30000000eb00500c98000b00e00027003c0066
:102d4000180990006800900001c3b3000170790079
:102d50008201e800130c9800580890000000e00081
:102d600003003c00081090000038a300050032006a
:102d700068009000e1c2b30001f079000280e80031
:102d8000100c9800d80890000b00ea00808f5000cb
:102d900001003d008105ea000b00ea00200c9800cc
:102da00001804500500c9800890f500001003d0043
:102db00080047800390c9800680090009808900012
:102dc00001004000090178008c0078009ef70700a0
:102dd00058089000090050001a0037009808900029
:102de000680090008b8f540018003d0001004000e7
:102df000090178008c00780093f70700180890000c
:102e000000814400120c980009805500200c9800a5
:102e1000580890000000e00003003c0008109000fb
:102e20000038a30006003200e8009000e0c2b300c2
:102e300080707900380890000000e800300c98009d
:102e400058089000400c9800a60037000100400090
:102e50000b0178008c0078007bf7070018089000c1
:102e600000814500120c98008b8454005808900093
:102e70000000e00003003c00081090000038a300b0
:102e80000500320068009000e1c2b30001707900d3
:102e90000200e800100c980058089000890f5000bc
:102ea00001003d00800478006800900098089000c0
:102eb000010040008b0046000901780062f707001e
:102ec0001808900000804400100c980058089000ea
:102ed00009005000200c98008200370070c6b30033
:102ee000804f55000300320070c4b300804f55007e
:102ef00014003a0058089000808f540004003d00f0
:102f0000081090000038a30001003a00590c980006
:102f1000580890000000e900500c980002003b00a7
:102f20000000eb00500c980070c6b300804f5500b5
:102f300002003a005ac6b3000b0037005ac4b3006f
:102f40000900370010c6b300804f550002003a0058
:102f50000ac7b3000400370010c4b300804f550007
:102f600001003a000ac5b3001809900068009000fb
:102f70003c7079008201e800130c98000c02780084
:102f8000580890000000e00003003c00081090008a
:102f90000038a30017003200e8009000e0c2b30040
:102fa00080f079008280e800110c980058089000a9
:102fb0000000e0000f0034008904e900890f500090
:102fc00001003d008004780068009000008040000f
:102fd00009017800840078001bf7070018089000aa
:102fe00000804400100c9800580890000900500020
:102ff000200c9800680090009808900001004000a4
:103000000086e8000a587800800078000d00e00093
:1030100004003500b0c2b300804878008c0478000a
:1030200004003700d0c2b300804878008c047800d8
:103030008d06ea008005eb000a003700a2002000a0
:103040008d00780070805700890007000fb8970046
:103050009fb897007a81550001f17f008b05e80049
:10306000800678000d00e000f4ff3c00e18f550081
:1030700009003c0050c6b300804f550003003200e9
:1030800050c4b300804f550003003a0000c3b300a2
:10309000005e78008c0478000b00e0000400320031
:1030a0000b00e900fa80570000804000060037005e
:1030b00000c3b300805c7800050037008b05e90091
:1030c00002c3b300a05c41000b00e000fbff3c002a
:1030d00068009000980890000100400000805400b3
:1030e000300c98000810900074006000f00f500041
:1030f0000e003a007800900098089000010040000f
:10310000a808900001004000b808900001004000ad
:10311000c80890008100400078089000808f50001f
:1031200002003d0001005000000c98004f06be0058
:103130004f05be004f04be000080fa0000000600ec
:1031400000017800e601400013007800010028002b
:10315000810360006f0060008009780012003a006f
:10316000220090000000e0000f003a0012009000e2
:103170000000e0000c003a00160020001200e00001
:103180003800320008003700e4004100910978005f
:103190000280e80090087800120878000009eb002f
:1031a0007003530001003700160020001300e000f8
:1031b000f5ff3200e40241000282e800110037000e
:1031c00080004000150078004f00de00808970000c
:1031d0009500780081804000140078004f00de00e8
:1031e000808a70009400780081804000120078008e
:1031f0004f00de00008a70001200780000094000d5
:103200000603e90013007800ef0f5000ecff3600d2
:103210008282e800640241000e0037009200d10073
:10322000150078004f00dd00008970009500d10086
:10323000140078004f00dd00808a70009400d100f7
:10324000130078004f00dd00008a70009309d10060
:103250000603e80013007800ff0f5000efff3e0068
:10326000ef096000938973000600780000000600f3
:1032700002027800809fbe00110009008200d80081
:10328000000178004f00be0002a2b9008480500007
:10329000110098000208780000000600020ab90038
:1032a000001bb9000200b800810042008100430009
:1032b000000006006022b800060220000000d000d6
:1032c0008180d2000482d2008582d2000000a0005a
:1032d0000202520083825a000300310002024200bf
:1032e00083824a000000a1000603e900f3ff3a00d0
:1032f00000000600889fbe008a9fbe008c1f7800d9
:103300008c0307009303330003866c006450e100d4
:103310002e0032006420e100330032006150e100f1
:103320002f0032006120e100310032008585550018
:10333000eb07b0000900200008042000050037005a
:103340000804440089844c000a003100060343004d
:1033500087834b000001530081815b00f8ff33003d
:103360000203be000800a0000804440089844c0049
:10337000f6ff3900c639dd00830173000100320019
:10338000130020008904d1000884d3000998a30009
:10339000050032000800a7000300a0008904d10046
:1033a0000884d3008b05e8008904d1000884d30089
:1033b0000001eb000281d2007603070001f0a100ba
:1033c0000cf0a70001f0a0006b0337006420e100bf
:1033d0006d0332000801be000200be00f7ff370097
:1033e0006120e100680332006000b800f3ff37009d
:1033f0000000200001f82700f0ff3700f4ff2f0045
:103400008a0337000001be00a30307000470a70071
:1034100003f0a10003f8a30013003a006509b1000e
:1034200010003200090035006928e1000200350073
:1034300001002800000005000000400081804800d5
:103440008502e900fcff3a0000000600f88f420008
:10345000050035008100d1000080d3008502e8001e
:10346000fcff3a00000006008000eb0000000500b1
:10347000889fbe008a9fbe00010578000100e00021
:103480000400350008003c000000e000200032008d
:103490000500370060001000e080180002003b00cb
:1034a00001f02c001a0037000004be006011b800c3
:1034b0006b0920000982cf00020039000882cf008a
:1034c0000441b000694252000e00320008003b0087
:1034d00082817100610164008904d1000884d300f5
:1034e0008b05e8000442e800f9ff3a0005003700c8
:1034f0000804440089844c008b05e9000442e9007b
:10350000fbff3a00230307000af0a70001f0a00028
:103510004f05be004f04be000000060003f0a200ed
:10352000889fbe008a9fbe008c1f780001030700a1
:10353000080333006450e1004f0032006420e100d2
:103540005200320003826c0007003b000905d000e6
:103550000306d000820f54000c065d000200390003
:103560000200320089017800030678008582550048
:1035700004003d000003fd008103fd008502ea0018
:103580008b854200840f720002003b006000100037
:10359000e08018006011b8000005eb007a28e10017
:1035a0000a00390006007800c75ddd00f707b200a9
:1035b000878075002d003700828171000a01780034
:1035c000610560008180d1000080d3008502e900a0
:1035d000f9ff3b00060440008784480002003b00de
:1035e00060041400e0841c000988a3000700320076
:1035f0008a81710082817100610164008904d100b7
:103600000884d3008b05e800170037000978a30071
:1036100013003a000b00e000130034008b05e900b2
:103620000804440089844c000a4474000978a3000b
:103630000d003a000b00e000070034008b05e900a4
:103640000804440089844c0001003a000b0020006b
:103650000978a300f7ff32000001eb0002003700f9
:10366000828171000a017800ca0207000cf0a700ed
:1036700001f0a000c00237006420e10002003a001f
:10368000838f6c00c00233000801be000200be0040
:10369000b9023700889fbe008a9fbe008c1f780049
:1036a000a4020700ab02330003866c006450e10003
:1036b000240032006420e100270032006150e10064
:1036c000220032006120e100210032008b8542009f
:1036d000eb07b1000134b800003ab800080442001a
:1036e00089844a00013ab8000030b8008880400060
:1036f00009014a00040033000000400081804800b6
:10370000020149008b05e900c909dd008301700051
:103710000100320013002000c814de004814dd0050
:103720004709de001200b200c808de0008847000fd
:103730009802070001f0a1000cf0a70001f0a00022
:103740008d0237006120e1008f0232000801be00c7
:103750000200be00f7ff37006150e100fcff3a00b5
:1037600089023700881f7800000478005001be00ed
:103770004000be000400400085804800060149006a
:1037800087814900009cbe000294be000400e10055
:103790000588e1000690e1000798e1000200310091
:1037a000680044001008e8004f047800000006009c
:1037b000f4874700889fbe008a9fbe008c9fbe0092
:1037c0008e1f78000205be000004be00d4b79f0023
:1037d000e5b79f00f6b79f0087bf9f000000eb0092
:1037e000c0b79f00b0b79f00a0b79f0090b79f00e1
:1037f00080b79f000d042000bfb097004fb0970026
:10380000000140000000e0000f003d004f08de0016
:1038100000007100c0b79f009e00070001003d003e
:1038200012002000a100070001003d00120020004e
:10383000a6000700b1000700b60007000f00400017
:10384000c8ff0700220037004f08de0000067100a5
:10385000ccb79f008f00070001003d001200200040
:103860009200070001003d001200200097000700b1
:10387000a20007000fb297009fb297002fb39700e6
:10388000bfb39700a90007000000520081805a00d2
:1038900002015b0083815b0080b79f0091b79f00ae
:1038a000a2b79f00b3b79f000007eb009f0007007f
:1038b0000020e10001a8e10002b0e10003b8e1004e
:1038c000010031001e0020000e005600c0b79f000e
:1038d0004fb297000400e000070035001000200000
:1038e000010020006011b800080470008984700095
:1038f0000a0571008b8571008d06e900beff3a0054
:103900000400e00003003d00820007000f004000bb
:1039100094ff07004fa897000000e00004003a0061
:103920000fb497009fb497002fb59700bfb59700cd
:10393000940007004f0778004f06be004f05be00f9
:103940004f04be004f01b10000000600881f780040
:1039500018002000881f780095ff07008f87e90076
:103960004f04780000000600801feb0090ff070066
:103970008f87e90000000600889fbe008a9fbe0076
:103980008c1f78006e00070007003d0073000700e1
:10399000e00f5b00e08f5b0007003d003200070096
:1039a0000006eb00040037003400070002003d0071
:1039b0002a0007001c00200072000700e3ff070038
:1039c0000203be000002be000c00e0000100320055
:1039d000220007000400be000601be004f0678006a
:1039e0004f05be004f04be0000000600889fbe00c9
:1039f0008a9fbe008c1f78005100070005003d0023
:103a000056000700e00f5b00e08f5b0006003d0002
:103a1000040037001900070003003d006000b800f3
:103a20006011b8001000070056000700ceff070025
:103a30000203be000002be000c00e00001003200e4
:103a4000060007000400be000601be004f06780015
:103a50004f05be004f04be00000006006000b80025
:103a60006011b80000003700040250008582580041
:103a70000603590087835900000006000006eb008a
:103a8000e00f5200e08f5a00e00f5b00e08f5b0018
:103a9000000006000180400090b79f000001eb008d
:103aa0008fb097000100e0000000060002007000e7
:103ab00090b79f000180400080b79f000001eb009d
:103ac000ffa897000100e00000000600020070005f
:103ad00080b79f00018040006faa9700cf20de00d2
:103ae00001007000f0af9f000402420025000700b3
:103af0004f18de000002720000000600e4af9f00d5
:103b00000804440089844c000a054d008b854d0053
:103b1000000006003fb29700cfb297005fb3970056
:103b2000efb3970000fe2f00000006003fb09700a3
:103b3000cfb097005fb19700efb19700000006008b
:103b40000205be000004be00e00f5000e08f5800e8
:103b5000e00f5900e08f5900000006006000b80037
:103b60006011b80008045000898458000a05590003
:103b70008b8559001c002000e00f5200e08f5a0096
:103b8000000006000800be000a01be00000006009a
:103b9000889fbe008a9fbe008c1f78000205be0071
:103ba0000004be000006eb00e00f5000e08f58005c
:103bb000e00f5900e08f590007003d006000b80099
:103bc0006011b80008045000898458000a055900a3
:103bd0008b8559001c002000e00f5200e08f5a0036
:103be000e00f5b00e08f5b0002003d000f0007006c
:103bf0000c00a2000800be000a01be00bb010700c5
:103c00000203be000002be000c00e0000100320012
:103c1000060007000400be000601be004f06780043
:103c20004f05be004f04be00000006006000b80053
:103c30006011b80004025000858258000603590044
:103c40008783590000000600810378009201070075
:103c50000001be006000b8000478a30013003a0021
:103c60006220e10015003e000d0039008301d10003
:103c70000281d3008180d3008301d1000281d3006f
:103c80008180d3008301d1000281d3008180d300e1
:103c90000538b000c42add00f300b2008381720051
:103ca00007f0a70003f0a00000000600f3ff2700c4
:103cb000f2ff2f006110b900fbff370003ff270060
:103cc000f7ff37007bfd07000400be000000060080
:103cd000839f68000100e00002003d0060001000ca
:103ce000e08018000300e00002003d0060011100c8
:103cf000e08119006ffd07004f00e00002003b006b
:103d000060001000e0801800000006008f1fd10046
:103d1000980107008f87e9000000e000000006001e
:103d20001400fa00889fbe008a9fbe008c9fbe00d0
:103d30000004be000205be00680047000a90be00f5
:103d40000890be00b40107000070a7000bf0a100ae
:103d5000304320009e02900080825200b0fe2f006f
:103d60000028e10011003d00b0fc2f000028e10018
:103d7000150034001e0990008e0890007e0090000f
:103d80000501b0000201d1008180d3000080d30082
:103d90008502e800fbff3a000b00e000d9013b0080
:103da00060001000e0801800d6013700f0ff2f00ff
:103db000f1ff27000b00e000d2013b0001002800ca
:103dc00000002000cf0137006000b800cd013700af
:103dd0004f89de0082017800cf01370007f0a20092
:103de00004023700809feb00620107008f87e90023
:103df0000000e000000006002800fa00889fbe00d6
:103e00008a9fbe008c9fbe0003866b00a90107003d
:103e10000028a30064003a000128a30067003a00cc
:103e20000008a30062003a000108a30065003a0000
:103e30001e009000be08900081064000ed3fb100da
:103e4000f4805700ee019000111ab8008e0990001e
:103e5000311bb8009e099000311cb800511db800fc
:103e6000f485570046000700fe0190003a00070065
:103e70008b85e8003e0007008e0990004000070097
:103e8000ee019000340007008b85e8003800070041
:103e90008e099000400007009e0990001b18b80092
:103ea000890440000a854800fe01900034000700a4
:103eb0008b85e80038000700ee0190003000070015
:103ec0008e0990001b18b800890440000a8548003c
:103ed0000a98a30008003a000402420085824a00c2
:103ee00006034b0087834b0008044c0089844c0078
:103ef0000a054d008d06e900848272008502730078
:103f00004c3add00850272000100320015002000ed
:103f1000443ade001400b2004538de00cb45dd0037
:103f20000b007000c540de00cb4ddd008b807000c3
:103f30004549de00cb55dd000b017100c551de00a7
:103f40000d0378002802070003f0a1000cf0a70081
:103f500003f0a0006b0137001b18b8008502400079
:103f600006834800e0834b0060044c0007003700e4
:103f70001b18b8000603400087834800faff37008b
:103f80001b18b8008703400008844800e0844c00f8
:103f900060054d00000006001b18b8000804400032
:103fa00089844800faff37000108a30052013a0053
:103fb0005800be005801be00e3ff37000008a30010
:103fc0004d013a0009047800f9ff37002800fa0093
:103fd000889fbe008a9fbe008c9fbe0003866b0038
:103fe000340107006400e100440032006408e1008d
:103ff0004a0032006100e100460032006108e10041
:1040000049003200ec0647006000b8003d02be00e7
:104010003d03be00f48657006011b8003d04be00a9
:104020003d05be007d0320000b0037000000a0000e
:104030008d06e900130032000402420085824a0026
:1040400006034b0087834b0000004000818048003e
:1040500002014900838149000802520089825a0006
:104060000a035b008b835b00f0ff3b000802420009
:1040700089824a000a034b008b834b008d06e900be
:10408000edff3a008482720086827200f707b20068
:104090008782720001003200150020001e0490008b
:1040a0003e0b900006035400e63fb0000368a300f7
:1040b000070032000000a7000500a0008301d10026
:1040c0000281d3008180d3000080d3000603e80082
:1040d0008301d1000281d3008180d3000080d3000e
:1040e0000002eb000482d200bf01070003f0a10030
:1040f0000cf0a70003f0a0000201370064024700a3
:104100006408e100fc0032003400be003401be004f
:10411000f6ff37006108e100f70032006011b800d7
:104120006000b800f1ff370003ff27000200200005
:10413000fbff37000004be00570007000003be006d
:104140000405be000200be0053000700844f750046
:10415000000006000200be006450e10005003600c9
:104160006420e100020036000968a30001003a0063
:104170000800be000160a0004f0678004f05be0099
:104180004f04be0000000600f0ff2f00f1ff2700e3
:10419000f9ff370081002000618055000b003d00d1
:1041a0000b00200061fe2f000100e1001d00340023
:1041b00082817100610164008904d1000884d30008
:1041c0000000e800faff3a0071002000610064007e
:1041d0000300700002006000090032006104440026
:1041e000e0844c000988a500050032008b05e8003a
:1041f0006808e10002003a008904d1000884d30075
:10420000f20f20000258e10005003d00c75ddd000f
:10421000f907b200898075000800780000000600e8
:104220000bf827008b00780000000500889fbe0077
:104230008a9fbe00841f7800beff07004f007800f1
:1042400011003300f0ff2f00838f6c0006003b004d
:10425000040565000a00a7000800370009f0a60061
:104260001000200008003700820f5400838f5c008c
:10427000030039001000200001003e000000200073
:1042800009f0a7000000ea004f05be004f04be0081
:104290000000e00000000600c70ade00f107b200df
:1042a000f50fb20008003200e1cf420002003200f8
:1042b0000170a00024000500810f70000100320091
:1042c0000408050044000500810f700002003a0058
:1042d000140005008502e9000000400081c048008c
:1042e000fcff3b000170a00024000500889fbe0079
:1042f0008a9fbe008c9fbe000404b8000506b8006b
:104300008904460060854e000606b8000a0546008e
:10431000e0854e000706b8008b054600040eb80085
:10432000890446000a854e00e0854d00050eb80060
:104330000a0546008b854e00060eb8008b05460028
:104340000416b8000a0546008b854e000516b80015
:104350008b054600041eb8008b0546000800be0011
:104360000a01be004f06be004f05be004f04be004e
:1043700000000600889fbe008a9fbe008c9fbe0082
:104380000404be000605be00809fbe00829fbe00e2
:1043900041010700040678000800be000a01be00c3
:1043a0003d010700840678004f03be004f02be00a7
:1043b0008d4f76007fb0970013003300f0ff2f0081
:1043c0008b8f6b0006003b000d0666000c00a700fb
:1043d0000a00370007f0a600100020000a0037008e
:1043e000880f5200898f5a008a0f5b008b8f5b0009
:1043f000030039001000200001003e0000002000f2
:1044000007f0a7000000ea004f06be004f05be00ff
:104410004f04be0000000600800078005002be007d
:104420005003be004439de00f700b200f37f2000e5
:1044300003016100090032000218e10016003a0091
:1044400085017200830173008381730000082000de
:1044500015003a004000200013003700850172006b
:10446000830173008381730005003a0004a8be0035
:1044700006a8be00100020000b0037000201e90072
:104480000402420085824a0006034b0087834b00ea
:104490000748a300f9ff32000740a00004a8be00af
:1044a00006a8be002000200080009800920098001e
:1044b00000000600680447000294be000094be009d
:1044c000fc0447008694be008494be000900780076
:1044d000d1ff070008007800cfff0700990078009f
:1044e000814f70000b003b000800be00fc0007007d
:1044f0004f00b10003003700f3ff2700f2ff2f0049
:104500006110b9004f06be004f05be004f04be004b
:104510000080fa0000000600889fbe008304780037
:104520000300e0002c00350003003c000082700016
:10453000040271002600320036432000c50020002e
:104540008383cf000a0039000541b1008283cf0088
:10455000070039000541b1008183cf000400390014
:104560000541b1008083cf00010039000541b10051
:1045700085c353006022b800120032000a003b00dd
:1045800084827200610260008301d1000281d30045
:104590008180d3000080d3000603e8008743e80051
:1045a000f7ff3a0007003700000040008180480014
:1045b00002014900838149000603e9008743e900bd
:1045c000f9ff3a008800070009f0a70003f0a000f7
:1045d0004f04be000000060060001000e0801800dc
:1045e00060011900e0811900d3ff3b00033e2c005d
:1045f000f7ff37002800fa00889fbe008a9fbe00a0
:104600008c9fbe0007067800878669000c003b007f
:10461000030478008704780008f0a10009f0a100e5
:10462000840f5000858f5800860f5900890f5c0059
:10463000030033000cf0a20001003a000cf0a100ce
:104640009cff07006400e1005f0032007801470032
:104650006408e100610032006c0147007485570076
:104660003200be001201be003a04be001a05be00b0
:104670001e039000be0a90008503530006003d0013
:104680000004fd008104fd000205fd008305fd001e
:104690008703ea00050378000df8a3000400320048
:1046a00060041400e0841c0060051d00e0851d000e
:1046b0006022b8007d0320000d38e1008006eb0089
:1046c0000b0039004433dd00f300b20083017300b6
:1046d00039003700848272000d027800e106640020
:1046e0008b85d1000a85d3008984d3000884d30048
:1046f0008703e900f7ff3b0008004000898048007d
:104700000a0149008b81490004003b006000100051
:10471000e080180060011900e08119000358a3002f
:10472000090032008d827200848272006102600092
:104730008301d1000281d3008180d3000080d300a7
:104740000603e8001b0037000348a30017003a00e7
:104750000600e000170034000603e9000d00a30086
:10476000000048008180480002014900838149001f
:104770000348a3000f003a000600e00009003400df
:104780000603e90000004000818048000201490062
:104790008381490001003a000003eb000348a300b5
:1047a000f5ff32006022b8000200370084827200f8
:1047b000618266000c00070003f0a1000cf0a70066
:1047c00003f0a0004fff3700640147006408e100d8
:1047d00002003a000df8a30047ff3a003200be0085
:1047e0001201be0047ff37001800200057002000cc
:1047f000080453000d003d000600200097fc2f0028
:104800000740e1001e0034008482720061026000f3
:104810008301d1000281d3008180d3000080d300c6
:104820000804e800f8ff3a00470020006104600037
:1048300005047400040464000d00320061004000af
:10484000e080480060014900e081490003b8a5000c
:10485000070032000603e8006538e10004003a0072
:104860008301d1000281d3008180d3000080d30076
:10487000f87f20000830e1000300350008037800cd
:104880006000b8006011b8004433dd00f300b200ee
:10489000830173000000060005ff27000582610008
:1048a000070032000428e100010032002400050066
:1048b0000600070001003a00440005000408050056
:1048c00002000700f9ff3a00140005006f82610042
:1048d00081027000850271008502720000000600ee
:1048e000e48240001078a300070032006402400018
:1048f0001178a3003400be001401be000400320091
:104900000330a700000006003500be001501be0000
:084910000330a00000000600c6
:020000040000fa
:020000040005f5
:0457f800eefa0000c5
:020000040000fa
:020000040005f5
:0457fc007f3e0000ec
:020000040000fa
:10000800381401004c14010060140100741401003c
:100018008814010038140100381401003814010054
:10002800381401003814010038140100a018010028
:100038003814010038140100381401003814010084
:10004800381401003814010038140100b8130100f5
:10005800381401006c4f00003814010038140100f6
:100068003814010038140100381401003814010054
:10007800b2200100381401003814010038140100be
:100088003814010038140100381401003814010034
:100098002e1601009c140100d81301003814010029
:1000a8003814010038140100381401003814010014
:1000b8003814010038140100381401003814010004
:1000c80038140100381401003814010038140100f4
:1000d80038140100381401003814010038140100e4
:1000e80038140100381401003814010038140100d4
:1000f80038140100c4140100ec1401003814010084
:1001080038140100381401003814010038140100b3
:1001180038140100381401003814010038140100a3
:100128003814010038140100381401003814010093
:100138003814010038140100381401003814010083
:100148003814010038140100381401003814010073
:100158003814010038140100381401003814010063
:100168003814010038140100f81301003814010094
:100178003814010038140100381401003814010043
:100188001814010038140100381401003814010053
:100198003814010038140100381401003814010023
:1001a8003814010038140100381401003814010013
:1001b8003814010038140100381401003814010003
:1001c80038140100381401003814010038140100f3
:1001d80038140100381401003814010038140100e3
:1001e80038140100381401003814010038140100d3
:0801f800381401003814010065
:020000040000fa
:10020800381401004c14010060140100741401003a
:100218008814010038140100381401003814010052
:10022800381401003814010038140100a018010026
:100238003814010038140100381401003814010082
:10024800381401003814010038140100b8130100f3
:10025800381401006c4f00003814010038140100f4
:100268003814010038140100381401003814010052
:10027800b2200100381401003814010038140100bc
:100288003814010038140100381401003814010032
:100298002e1601009c140100d81301003814010027
:1002a8003814010038140100381401003814010012
:1002b8003814010038140100381401003814010002
:1002c80038140100381401003814010038140100f2
:1002d80038140100381401003814010038140100e2
:1002e80038140100381401003814010038140100d2
:1002f80038140100c4140100ec1401003814010082
:1003080038140100381401003814010038140100b1
:1003180038140100381401003814010038140100a1
:100328003814010038140100381401003814010091
:100338003814010038140100381401003814010081
:100348003814010038140100381401003814010071
:100358003814010038140100381401003814010061
:100368003814010038140100f81301003814010092
:100378003814010038140100381401003814010041
:100388001814010038140100381401003814010051
:100398003814010038140100381401003814010021
:1003a8003814010038140100381401003814010011
:1003b8003814010038140100381401003814010001
:1003c80038140100381401003814010038140100f1
:1003d80038140100381401003814010038140100e1
:1003e80038140100381401003814010038140100d1
:0803f800381401003814010063
:020000040000fa
:10491800010200000304000005060000070800006b
:10492800090a00000b5300006574000020530000c2
:1049380053490000440d00000a00000053650000c0
:10494800742000004e650000747700006f7200004c
:104958006b20000054790000706500000d0a00000b
:1049680000530000657400002053000063610000dc
:104978006e20000054790000706500000d0a0000e8
:1049880000530000657400002043000068610000c7
:104998006e6e0000656c0000204c0000697300001a
:1049a800740d00000a000000536500007420000028
:1049b8006c690000737400002072000065740000c8
:1049c80072790000206300006f7500006e740000ab
:1049d8000d0a000000530000657400002045000027
:1049e800766500006e740000204e00006f740000b1
:1049f80069660000790d00000a00000044690000a3
:104a080073610000626c00006520000050530000d4
:104a18002d5000006f6c00006c0d00000a000000b3
:104a2800456e0000616200006c65000020500000c7
:104a3800532d0000506f00006c6c00000d0a000040
:104a4800005300006574000020420000656100000a
:104a5800636f00006e200000546900006d6500005f
:104a68006f750000740d00000a0000005365000017
:104a7800742000007365000063750000726900000f
:104a8800747900003a200000006f00007065000093
:104a98006e0d00000a000000574500005034000069
:104aa800300d00000a00000057450000503100009a
:104ab800303400000d0a000000570000504100008b
:104ac8002077000069740000682000006b65000012
:104ad800790d00000a000000575000004120000036
:104ae800776900007468000020700000617300009e
:104af800732d00007068000072610000736500008b
:104b08002028000057410000524e0000494e000086
:104b1800473a000020740000686500002066000025
:104b28006c790000706f000072740000207700003c
:104b3800696c00006c20000073700000656e000056
:104b480064200000616200006f750000742000009e
:104b58003330000020730000656300006f6e0000b2
:104b680064730000207400006f200000636100007f
:104b78006c630000756c0000617400006520000023
:104b880074680000652000006b650000792900004a
:104b98000d0a0000005700005041000032200000bc
:104ba8007769000074680000206b000065790000d8
:104bb8000d0a00000057000050410000322000009c
:104bc80077690000746800002070000061730000bd
:104bd800732d0000706800007261000073650000aa
:104be8002028000057410000524e0000494e0000a6
:104bf800473a000020740000686500002066000045
:104c08006c790000706f000072740000207700005b
:104c1800696c00006c20000073700000656e000075
:104c280064200000616200006f75000074200000bd
:104c38003330000020730000656300006f6e0000d1
:104c480064730000207400006f200000636100009e
:104c58006c630000756c0000617400006520000042
:104c680074680000652000006b6500007929000069
:104c78000d0a0000005700005041000020410000cc
:104c8800555400004f200000776900007468000048
:104c9800206b0000657900000d0a00000057000035
:104ca8005041000020410000555400004f200000f2
:104cb80077690000746800002070000061730000cc
:104cc800732d0000706800007261000073650000b9
:104cd8002028000057410000524e0000494e0000b5
:104ce800473a000020740000686500002066000054
:104cf8006c790000706f000072740000207700006b
:104d0800696c00006c20000073700000656e000084
:104d180064200000616200006f75000074200000cc
:104d28003330000020730000656300006f6e0000e0
:104d380064730000207400006f20000063610000ad
:104d48006c630000756c0000617400006520000051
:104d580074680000652000006b6500007929000078
:104d68000d0a000000530000746100007274000016
:104d7800205700006946000069200000436f0000ca
:104d88006e6e000065630000740d00000a000000ec
:104d980032400000213f00005e5e00005e710000ae
:104da800593a00003140000000000000070c0000e4
:104db80011160000070c000011160000070c000077
:104dc80011160000070c000011160000050900006c
:104dd8000e140000050900000e140000050900006b
:104de8000e140000050900000e140000040b00005a
:104df80010170000040b000010170000040b00003f
:104e080010170000040b000010170000060a00002d
:104e18000f150000060a00000f150000060a000022
:104e28000f150000060a00000f15000078a4000006
:104e38006ad7000056b70000c7e80000db70000022
:104e480020240000eece0000bdc10000af0f00001e
:104e58007cf500002ac600008747000013460000c2
:104e680030a800000195000046fd0000d898000019
:104e780080690000aff70000448b0000b15b0000c0
:104e8800ffff0000bed700005c890000221100006f
:104e9800906b00009371000098fd00008e430000a5
:104ea80079a6000021080000b4490000622500002e
:104eb8001ef6000040b3000040c00000515a000038
:104ec8005e260000aac70000b6e900005d100000d9
:104ed8002fd60000531400004402000081e60000b1
:104ee800a1d80000c8fb0000d3e70000e6cd000011
:104ef800e1210000d607000037c30000870d00003d
:104f0800d5f40000ed1400005a45000005e9000042
:104f1800e3a90000f8a30000effc0000d90200009c
:104f28006f6700008a4c00002a8d0000423900009b
:104f3800faff000081f6000071870000226100007e
:104f48009d6d00000c380000e5fd000044ea0000fb
:104f5800bea40000a9cf0000de4b0000604b00009b
:104f6800bbf6000070bc0000bfbe0000c67e00009b
:104f78009b280000fa270000a1ea00008530000005
:104f8800efd40000051d00008804000039d000009f
:104f9800d4d90000e5990000dbe60000f87c0000a9
:104fa800a21f000065560000acc4000044220000a7
:104fb80029f4000097ff00002a430000a7230000ff
:104fc80094ab000039a0000093fc0000c359000016
:104fd8005b65000092cc00000c8f00007df400009f
:104fe800efff0000d15d0000848500004f7e0000c7
:104ff800a86f0000e0e600002cfe0000144300004b
:1050080001a30000a1110000084e0000827e0000ec
:1050180053f7000035f200003abd0000bbd2000093
:10502800d72a000091d3000086eb000045760000e7
:10503800656e0000743a0000204300006f6e0000a7
:105048006e65000063740000696f00006e20000048
:105058005375000063630000657300007366000009
:10506800756c00000d0a0000004500007665000020
:105078006e7400003a200000436f00006e6e00005e
:1050880065630000746900006f6e00002046000030
:10509800616900006c65000064200000202d00009c
:1050a8002d20000065760000656e00007449000040
:1050b8006e6600006f2000003d2000000025000003
:1050c800640d00000a00000045760000656e0000cf
:1050d800743a0000204300006f6e00006e65000007
:1050e80063740000696f00006e20000054650000c2
:1050f8006d7000006f72000061720000696c000042
:10510800792000004c6f000073740000202d00000f
:105118002d20000065760000656e000074490000cf
:105128006e6600006f2000003d2000000045000072
:10513800766500006e7400003a200000436f00009e
:105148006e6e000065630000746900006f6e0000f9
:105158002052000065650000737400006162000061
:105168006c69000073680000656400000d0a0000a7
:1051780000450000766500006e7400003a200000cb
:10518800436f00006e6e00006563000074690000e4
:105198006f6e000020500000657200006d61000015
:1051a8006e6500006e7400006c790000204c0000f1
:1051b8006f730000742000002d2d00002065000092
:1051c800766500006e740000496e0000666f00008e
:1051d800203d00002000000045760000656e0000bc
:1051e800743a000020530000636100006e20000044
:1051f80052650000737500006c7400007320000095
:105208005265000061640000792c00000025000050
:105218006400000072650000737500006c74000083
:10522800730d00000a000000484500004c4f0000c4
:10523800204d000043480000504200004f4100004c
:10524800524400000d0a000000450000484c0000d0
:105258004f2000004d43000048500000424f00001e
:1052680041520000440d00000a00000041550000b2
:1052780054480000204c00004f470000494e0000f1
:105288000d0a0000000d00000a0000004d4100005a
:10529800494c000020460000524f00004d3a0000e3
:1052a8003c0000003e0d00000a00000052430000d0
:1052b80050540000205400004f3a00003c00000009
:1052c80044410000544100000d0a0000004600005f
:1052d800726f00006d3a0000200000000d0a000007
:1052e800546f00003a200000000d00000a4300003f
:1052f800433a0000200000000d0a0000537500002a
:10530800626a000065630000743a00002000000033
:105318000d0a00002e0d00000a0000000d0a000012
:105328002e00000051550000495400000d0a0000ed
:1053380000000000466c0000797000006f720000e9
:10534800742000007374000061720000746900002a
:105358006e6700002e2e00002e000000544300004f
:1053680050000000556e0000657800007065000070
:105378006374000065640000206500006e6400002e
:10538800206f000066200000707200006f67000048
:10539800726100006d2e00002e2e00000d0a000024
:1053a800004900006e69000074690000616c00002b
:1053b800697a0000696e000067200000554400000b
:1053c800502e00002e2e00000d0a0000004600009e
:1053d8004c590000000d00000a4e000065770000df
:1053e8002049000050200000416400006472000061
:1053f80065730000733a0000200000000d0a0000e9
:105408000000000003000000466c000079700000f6
:105418006f72000074200000636f00006e6e000061
:105428006563000074650000642e00002e2e0000e5
:1054380020680000656c00006c6f00002077000099
:105448006f7200006c640000210d00000a0000006b
:105458004469000073740000616e00006365000019
:1054680020690000732000002575000020690000f5
:105478006e630000686500007320000028250000a6
:105488002e32000066200000636d0000292e000007
:10549800200d00000a0000005746000020410000cf
:1054a8005353000045520000544900004f4e00007d
:1054b8003a2000004d6f0000647500006c65000024
:1054c800204e0000756d000062650000722000002b
:1054d8003d2000000025000064200000200000009e
:1054e8004c6900006e650000204e0000756d0000dc
:1054f80062650000722000003d20000000250000c9
:1055080064000000000000002c010000c80000003a
:1055180001000000c80000002c010000030000008a
:105528003c0000001e0000000400000032000000e3
:10553800c800000008000000e8030000e8030000bd
:1055480008000000e8030000e8030000090000006c
:10555800e8030000e8030000111100002222000007
:1055680033330000444400005555000066660000cf
:10557800777700008888000099990000aaaa00009f
:10558800bbbb0000cccc0000dddd0000eeee00006f
:10559800cecd0000acab00002e00000000040000df
:1055a800a30000000000000050490000435500001f
:1055b80053320000444f00005432000000460000ff
:1055c8006c790000706f0000727400004e65000076
:1055d800740000000d0a0000444800004350000019
:1055e8002f5000006f7700006572000020650000f2
:1055f800766500006e740000206f00006363000091
:105608007572000072650000640000004f6e0000b3
:10561800004f000066660000006900006e6600002a
:105628007261000000610000646800006f630000a0
:105638000054000043500000000000002c28000027
:10564800290000002e000000256c00006900000001
:1056580070610000737600000d0a00000000000071
:10566800256400002e250000642e0000256400003b
:105678002e25000064250000630000005449000046
:105688004d4900004e470000204f000055540000cf
:10569800210d00000a00000031320000372e000002
:1056a800302e0000302e0000310000004944000078
:1056b8004c4500000000000000040000a3000000aa
:1056c80000000000010100000100000006000000c9
:020000040000fa
:1056d8000200fa00004f780020ca2200104078002b
:1056e8009e4f50001d00320020ca22001040780052
:1056f800e24f40000b00320020ca22001040780020
:105708000080fb007e00b90080007800a06b2200ba
:1057180000804000017f22000e0009003118780047
:10572800e001b10020ca22001e487800e0cfb30093
:105738009e4f1000090032001e80fb007e00b90059
:1057480080007800a06b220000804000017f2200ca
:105758000e000900b0187800e001b1000080fa00de
:10576800000006000000fa0030ca220090407800cd
:1057780020ca22001040780080cf50002900320053
:1057880030ca220010407800e24f40001800320072
:10579800c07822000001780030ca2200104078004a
:1057a8000080fb007e00b900fc004000a06b2200d6
:1057b800008040009042780030ca220010407800f3
:1057c8000080fb007e00b90080007800a06b2200fa
:1057d800008040009000780080fd2f00008040008d
:1057e8008402200013c0b300854078004d110700e3
:1057f80020ca22009040780030ca22000148780070
:10580800c080220090417800813f810080fd2f00f8
:1058180000814000c07822008402200011c0b3003b
:10582800401107000080fa00000006000c00fa0092
:10583800a0952100000f7800206581000000e0009d
:1058480008003a00c89002000000000080007800bc
:10585800f07f200080806000004020000080400031
:1058680020658900a06b220070408900407b2200df
:10587800c20320008000eb006e030200000000005d
:105888000040eb00204f98000040eb00304f98009c
:105898004e0037003e4890008dff07003e489000bc
:1058a8000080fb006600b9008000780060a82a002c
:1058b8000080400090409000214798003e489000aa
:1058c8000080fb006600b9008080e80060a82a001c
:1058d8000080400090007800410798003e48900002
:1058e8000080fb006600b900e400400060a82a00c0
:1058f8000080400090007800310798002e4090000a
:105908000080fb000000e000010032002e0037009c
:105918001e00780020079800ce0090003e009000fe
:10592800008040001e004000a1022000010f40003e
:10593800607523009e0f1000fdff3e00c08022000e
:10594800ae409000014878002e0090008002b00020
:10595800803f8900813f81004e0090000080400018
:105968000000e800903f8900913f81003e009000d0
:1059780000804000a03f8900d0002000304089000e
:10598800404081000030a1004040890075ff0700b9
:105998003e4890000080fb006600b9008000780057
:1059a80060a82a000080400090407800307b2200e8
:1059b80001487800200b07003e4890000040e800ae
:1059c800304f980001003700ffff37003e48900035
:1059d800e64f5000afff36000080fa0000000600d6
:1059e8001200fa00100798002107980062479800f3
:1059f80043079800244f98000040eb00004f7800c0
:105a0800990037001e40780031ff070030408100c0
:105a1800ed0f500093003a0052ff0700307b220040
:105a2800904078002e48900080cf50008d003a00ba
:105a380080212000803d89006e4090000004e00035
:105a48000a003a004e009000e03c89004040810086
:105a58000030a0004040890040002000304089000c
:105a68004e019000524089007b003700216581007b
:105a7800f03f2000808f500004003600216581002f
:105a880080382100808f500002003600004020003e
